:100000000C9462000C94D8040C9405050C948A009E
:100010000C948A000C948A000C948A000C948A0038
:100020000C948A000C948A000C948A000C948A0028
:100030000C948A000C948A000C948A000C948A0018
:100040000C9441050C9416010C948A000C948A00BF
:100050000C948A000C948A000C948A000C948A00F8
:100060000C948A000C948A000000000024002700F1
:100070002A0000000000250028002B0000000000DE
:1000800023002600290004040404040404040202DA
:100090000202020203030303030301020408102007
:1000A0004080010204081020010204081020000012
:1000B0000007000201000003040600000000000029
:1000C0000000B20211241FBECFEFD8E0DEBFCDBFCB
:1000D00011E0A0E0B1E0E4EEF2E102C005900D9283
:1000E000A232B107D9F715E0A2E2B1E001C01D923A
:1000F000A93CB107E1F710E0C4ECD0E004C02297BE
:10010000FE010E946C09C23CD107C9F70E9432056A
:100110000C9470090C940000A091C505B091C6051F
:10012000ED91FD918081ED91FD919081ED91FD9199
:100130006C9163708E2309F064609F2309F06860FE
:10014000ECEAF0E0E60FF11D659565956D936D9114
:100150007D918D919D91099423C01AC012C016C043
:1001600010C01EC009C014C013C006C019C009C009
:100170000DC007C00DC014C0625070408040904058
:100180000BC0615070408040904006C06E5F01C05F
:100190006F5F7F4F8F4F9F4F9E938E937E936E9393
:1001A0000895A091C705B091C805ED91FD9180819A
:1001B000ED91FD919081ED91FD916C9163708E2395
:1001C00009F064609F2309F06860E1EFF0E0E60F5A
:1001D000F11D659565956D936D917D918D919D91C5
:1001E000099423C01AC012C016C010C01EC009C096
:1001F00014C013C006C019C009C00DC007C00DC08F
:1002000014C062507040804090400BC061507040FC
:100210008040904006C06E5F01C06F5F7F4F8F4F80
:100220009F4F9E938E937E936E9308951F920F928D
:100230000FB60F9211242F933F934F936F937F9399
:100240008F939F93AF93BF93EF93FF93DF93CF93DE
:10025000CDB7DEB7A297DEBFCDBF4EB58091A30567
:100260009091A405892B09F0CEC0242F30E0C9015C
:100270008F7190709093A6058093A50565E03595E4
:1002800027956A95E1F72130310549F0273031058E
:1002900009F487C02115310509F42FC19EC0809152
:1002A000A5059091A605892B21F48091A7058EBD07
:1002B00024C18091A5059091A605019709F059C028
:1002C0008091B705823008F044C0F894ACEAB5E0FC
:1002D000ED91FD918081ED91FD919081ED91FD91E8
:1002E0006C9163708E2309F064609F2309F068604D
:1002F000E4E8F1E0E60FF11D659565956D936D916C
:100300007D918D919D91099423C01AC012C016C091
:1003100010C01EC009C014C013C006C019C009C057
:100320000DC007C00DC014C06250704080409040A6
:100330000BC0615070408040904006C06E5F01C0AD
:100340006F5F7F4F8F4F9F4F9E938E937E936E93E1
:1003500001C0F89478948091B3058EBDF894109202
:10036000B3051092B4051092B5051092B6057894B5
:10037000C4C08091A5059091A605029709F0BDC063
:100380002091800530917F0590917F0580918005B7
:10039000891714F080E001C080E2231B280F2EBDD6
:1003A000ACC04E3F79F440938105109282051092C3
:1003B000A6051092A5051092800580918005809376
:1003C0007F0521C04F3FF9F49091800580917F0512
:1003D000981709F092C05C9890C020938105809195
:1003E000A5059091A6058093820581E090E0909309
:1003F000A4058093A3058091A5059091A6051816E4
:1004000019060CF47AC08091A5059091A6051816DE
:100410001906FCF48091A3059091A405809738F407
:10042000E091A305F091A405EF57FA4F4183809125
:10043000A3059091A40501969093A4058093A3052C
:100440008091A5059091A60501979093A6058093AC
:10045000A5058091A5059091A605892B09F04DC0B1
:100460008091800520917F05992787FD90950196C1
:100470008F719070332727FD309582179307C9F14C
:10048000DE011196E1E8F5E082E201900D928150E3
:10049000E1F780918005992787FD9095FC0135E073
:1004A000EE0FFF1F3A95E1F7880F991FE80FF91F2C
:1004B000E15CFE4FDE01119682E20D9001928150C7
:1004C000E1F7809180058F5F8F7180938005209187
:1004D000800530917F0590917F0580918005891777
:1004E00014F080E001C080E2231B280F25310CF0BE
:1004F0005C9A1092A4051092A305A296DEBFCDBF10
:10050000CF91DF91FF91EF91BF91AF919F918F912B
:100510007F916F914F913F912F910F900FBE0F9050
:100520001F901895823021F0833079F080E0089593
:100530007093C6056093C50580E06CE870E041E00B
:1005400050E00E94B50481E008957093C80560935F
:10055000C70581E061ED70E041E050E00E94B50424
:1005600081E008958F92AF92CF92EF920F931F93F5
:1005700010922501109224018DE191E090932301C6
:100580008093220182E291E069E04EE02FE00FEFDC
:1005900015E0E12EB6E0CB2EA7E0AA2EF8E08F2ED4
:1005A0000E940809109280058091800580937F0544
:1005B00082E062E00E94DC0583E062E00E94DC05EC
:1005C00048E850E0FA018491282F30E0220F331FD1
:1005D00024583F4FF901859194919093AD058093F4
:1005E000AC052CE930E0F90184918093B0054F5FB0
:1005F0005F4FFA018491E82FF0E0EE0FFF1FE458FF
:10060000FF4F859194919093AF058093AE052F5F36
:100610003F4FF90184918093B1051092B305109278
:10062000B4051092B5051092B60580ED97E00E94D2
:100630009705E091AC05F091AD05208140E030E0F8
:100640008091B00590E028233923232B09F041E065
:10065000E091AE05F091AF05208130E08091B105C9
:1006600090E028233923232B09F042604093B20500
:1006700082E06CEA75E00E949202182F8093B70521
:1006800083E06CEA75E00E949202180F1093B705A0
:100690001F910F91EF90CF90AF908F90089510928F
:1006A000A4051092A3051092A8051092A905109216
:1006B000AA051092AB051092A705F8941092B30505
:1006C0001092B4051092B5051092B605789482E2A6
:1006D00091E00E944B0810928005809180058093E4
:1006E0007F0584E060E00E941B060895EF92FF9270
:1006F0000F931F93CF93DF93FC018181E82EFF249A
:100700008081833051F0843018F48230A9F51AC00A
:10071000843059F18E3F81F52DC0C7010197809734
:1007200058F58F01C0E0D0E007C082E291E0F80107
:1007300061810E94010821960F5F1F4FCE15DF05D2
:10074000A4F31AC081E0E816F104B1F4628170E00C
:10075000AB0105E0559547950A95E1F782E291E0F6
:100760006F7170700E94C70707C082E291E00E941B
:100770004B0802C00E944F03DF91CF911F910F9150
:10078000FF90EF900895EF92FF920F931F93DF93E6
:10079000CF93CDB7DEB7A2970FB6F894DEBF0FBEEA
:1007A000CDBF9091800580917F05981711F18091C0
:1007B0007F05992787FD9095FC0135E0EE0FFF1F1F
:1007C0003A95E1F7880F991FE80FF91FDE0111969E
:1007D000E15CFE4F82E201900D928150E1F7809141
:1007E0007F058F5F8F7180937F05CE0101960E94F8
:1007F00076030E9489059B01AC018091A805909128
:10080000A905A091AA05B091AB0579018A01E81A62
:10081000F90A0A0B1B0BD801C701C397A105B10543
:100820007CF086B186958695809581708093A7052A
:100830002093A8053093A9054093AA055093AB05D2
:10084000A2960FB6F894DEBF0FBECDBFCF91DF9159
:100850001F910F91FF90EF9008950F931F9380E1E8
:1008600062E00E94DC0502E211E0C80164E144E0BC
:1008700020E00E94DB0884B1837D84B9249A84E05F
:1008800061E00E94DC0584E060E00E941B068CB5FC
:100890008F7E8CBD8CB58C7F8CBD8CB580648CBDFF
:1008A0008CB580688CBD0E944F03C80160E040E0B9
:1008B0000E94C707C80160E071E00E94B204C8014D
:1008C00060E041E00E94C707C8016AE071E00E9451
:1008D000B2041F910F910895CF92DF92EF92FF9291
:1008E0000F931F93CF93DF937C016B018A01C0E0CC
:1008F000D0E00FC0D6016D916D01D701ED91FC9153
:100900000190F081E02DC7010995C80FD91F015052
:1009100010400115110571F7CE01DF91CF911F91A4
:100920000F91FF90EF90DF90CF900895CF93DF93DA
:10093000EC016115710519F420E030E00FC0DB0116
:100940000D900020E9F71197A61BB70BE881F981FC
:100950000280F381E02DAD0109959C01C901DF9171
:10096000CF9108950E9496040895823000F5E82FF3
:10097000F0E0EE0FFF1FE854FA4F71836083882385
:1009800019F08130A1F408C0809169008C7F842B1C
:1009900080936900E89A089580916900440F551F7B
:1009A000440F551F837F842B80936900E99A089533
:1009B0001F920F920FB60F9211242F933F934F93D4
:1009C0005F936F937F938F939F93AF93BF93EF93B7
:1009D000FF938091B8059091B905892B29F0E0919A
:1009E000B805F091B9050995FF91EF91BF91AF91CD
:1009F0009F918F917F916F915F914F913F912F9137
:100A00000F900FBE0F901F9018951F920F920FB668
:100A10000F9211242F933F934F935F936F937F9384
:100A20008F939F93AF93BF93EF93FF938091BA05FA
:100A30009091BB05892B29F0E091BA05F091BB0597
:100A40000995FF91EF91BF91AF919F918F917F9108
:100A50006F915F914F913F912F910F900FBE0F902B
:100A60001F901895CF93DF930E94A1050E942D043B
:100A7000C0E0D0E00E94C3032097E1F30E94000091
:100A8000F9CF1F920F920FB60F9211242F933F931D
:100A90008F939F93AF93BF938091C0059091C105B1
:100AA000A091C205B091C3053091C4050196A11D66
:100AB000B11D232F2D5F2D3720F02D570196A11D3D
:100AC000B11D2093C4058093C0059093C105A093E8
:100AD000C205B093C3058091BC059091BD05A0915E
:100AE000BE05B091BF050196A11DB11D8093BC0547
:100AF0009093BD05A093BE05B093BF05BF91AF9184
:100B00009F918F913F912F910F900FBE0F901F904B
:100B100018958FB7F8942091C0053091C105409188
:100B2000C2055091C3058FBFB901CA01089501974D
:100B300039F0880F991F880F991F02970197F1F7D5
:100B40000895789484B5826084BD84B5816084BD45
:100B500085B5826085BD85B5816085BDEEE6F0E036
:100B6000808181608083E1E8F0E010828081826092
:100B70008083808181608083E0E8F0E08081816013
:100B80008083E1EBF0E0808184608083E0EBF0E043
:100B9000808181608083EAE7F0E0808184608083E7
:100BA0008081826080838081816080838081806891
:100BB00080831092C1000895CF93DF93482F50E0B7
:100BC000CA0186569F4FFC0134914A575F4FFA0184
:100BD0008491882369F190E0880F991FFC01E859FE
:100BE000FF4FA591B491FC01EE58FF4FC591D491F0
:100BF000662351F42FB7F8948C91932F9095892305
:100C00008C93888189230BC0623061F42FB7F894EC
:100C10008C91932F909589238C938881832B888343
:100C20002FBF06C09FB7F8948C91832B8C939FBFE6
:100C3000DF91CF910895482F50E0CA0182559F4F10
:100C4000FC012491CA0186569F4FFC0194914A579A
:100C50005F4FFA013491332309F440C0222351F14C
:100C6000233071F0243028F42130A1F0223011F526
:100C700014C02630B1F02730C1F02430D9F404C0BC
:100C8000809180008F7703C0809180008F7D80935A
:100C9000800010C084B58F7702C084B58F7D84BD7D
:100CA00009C08091B0008F7703C08091B0008F7D24
:100CB0008093B000E32FF0E0EE0FFF1FEE58FF4FE0
:100CC000A591B4912FB7F894662321F48C91909557
:100CD000892302C08C91892B8C932FBF0895682F94
:100CE00070E0CB0182559F4FFC012491CB018656C9
:100CF0009F4FFC0144916A577F4FFB0194919923C8
:100D000019F420E030E03CC0222351F1233071F08F
:100D1000243028F42130A1F0223011F514C02630FF
:100D2000B1F02730C1F02430D9F404C080918000A4
:100D30008F7703C0809180008F7D8093800010C0EA
:100D400084B58F7702C084B58F7D84BD09C0809142
:100D5000B0008F7703C08091B0008F7D8093B0008A
:100D6000892F90E0880F991F84589F4FFC01A5910F
:100D7000B4918C9120E030E0842311F021E030E048
:100D8000C90108950F931F93CF93DF93EC01062FB2
:100D9000617089890E941B060695602F61708A899F
:100DA0000E941B060695602F61708B890E941B06AE
:100DB00010E0159507950170639689816397602F00
:100DC0000E941B06088599859F3F19F08A8581112D
:100DD000092F802F61E00E941B06802F60E00E9497
:100DE0001B06DF91CF911F910F910895EF92FF9213
:100DF0000F931F93CF93DF93EC01062FE42EF8841B
:100E000099859F3F19F08A858111F92E8F818F3F37
:100E100029F480E491E00E94970542C0898960E04E
:100E20000E94DC058A8960E00E94DC058B8960E015
:100E30000E94DC058C8960E00E94DC058F8161E006
:100E40000E941B068E8160E00E941B068F2D61E0D0
:100E50000E941B068C890E946F06182F8F2D60E060
:100E60000E941B068F2D61E00E941B068F2D60E003
:100E70000E941B06113051F3898961E00E94DC0554
:100E80008A8961E00E94DC058B8961E00E94DC05B3
:100E90008C8961E00E94DC058F8160E00E941B0666
:100EA0008E816E2D0E941B06602F607189890E94C1
:100EB0001B06602F60728A890E941B06602F607477
:100EC0008B890E941B06602F60788C890E941B060C
:100ED0008F2D61E00E941B068F2D60E00E941B0693
:100EE000602F617089890E941B06602F62708A8959
:100EF0000E941B06602F64708B890E941B0608707D
:100F00008C89602F0E941B068F2D61E00E941B06BA
:100F10008F2D60E00E941B06DF91CF911F910F91F2
:100F2000FF90EF9008950F931F93CF93DF93EC0101
:100F3000062F89858F3F29F4CE0140E00E94F606F6
:100F40000EC01A851A86CE0140E00E94F60682E0A5
:100F50008A87CE01602F40E00E94F6061A87DF9153
:100F6000CF911F910F910895FC01638D862F8460AE
:100F7000838F6C60CF010E9493070895FC01638DFD
:100F80006D7F638F686040E00E94F6060895FF92CF
:100F90000F931F93CF93DF93EC01042F8E89841757
:100FA00010F4082F01500D876C871E86202F30E02B
:100FB000FE01E20FF31FF7881B85160F8F2D8F732D
:100FC000180F18320CF0185217FD185D8A8590E042
:100FD000227030708217930719F0CE010E94BE076D
:100FE00002700A8780E4F8221F291068CE01612F61
:100FF00040E00E94F606DF91CF911F910F91FF9084
:1010000008951F93CF93DF93EC01162F8B858823D0
:1010100019F48E85882329F0CE016C854D850E94B8
:10102000C7071D3039F01A3029F0CE01612F41E099
:101030000E94F6061E868F852C85882371F42F5F0B
:101040002C871D3041F0332727FD30958D8990E0A6
:101050002817390784F01C8609C021502C871A30C4
:1010600011F027FF08C08D8981508C878D858F5F97
:101070008D8781E08E872D85332727FD30958E89DA
:1010800090E0281739070CF01D8681E090E0DF9191
:10109000CF911F910895CF93DF93EC0189858F3F06
:1010A000D1F082E08A87CE0161E040E00E94F6063E
:1010B0001A86CE0161E040E00E94F6068F818F3FE4
:1010C00021F484E59BE00E949705CE0160E040E0BA
:1010D0000E94C7070CC0CE0161E040E00E94F60606
:1010E0008F818F3F21F484E59BE00E9497051B864A
:1010F000DF91CF910895FF920F931F93CF93DF93CA
:10110000EC01F02E423010F008E001C000E0222394
:1011100019F0413009F4046010E08CE49DE10E9474
:1011200097051F5F1231C9F78E8160E00E941B0690
:101130008F2D60E00E941B068E8160E00E941B06DE
:10114000CE0163E00E94C20688E893E10E94970501
:10115000CE0163E00E94C20686E990E00E949705F6
:10116000CE0163E00E94C20686E990E00E949705E6
:10117000CE0162E00E94C20686E990E00E949705D7
:101180000062CE01602F40E00E94F60684E08B8F63
:10119000CE010E94B407CE010E944B0882E08C8FE2
:1011A000CE0166E040E00E94F606DF91CF911F91EC
:1011B0000F91FF900895EF92FF920F931F93CF939B
:1011C000DF93EC01162FF42EE22E6D8B6D834E8B88
:1011D0004C838F89860F898F888D860F8A8FCE01E9
:1011E00008850E947B0809850F3F59F0198E80E41D
:1011F0008A8F82E08A87CE01612F4F2D2E2D0E948B
:101200007B08DF91CF911F910F91FF90EF90089590
:101210006F927F928F92AF92CF92EF920F931F9324
:10122000DF93CF93CDB7DEB73C01142F8E2DF301A2
:1012300066839FEF97832087018712861386148623
:10124000158616861786E18AC28AA38A848A61E097
:101250000E94DC058C2D61E00E94DC058A2D61E096
:101260000E94DC05882D61E00E94DC05F301178AED
:1012700080E4808F84E1818F84E5828F868161E0C4
:101280000E94DC051F3F41F0812F61E00E94DC05D8
:10129000812F60E00E941B06F301808561E00E94BF
:1012A000DC050F3F21F0802F61E00E94DC05C301C7
:1012B00064E141E020E00E94DB08F3011783CF9155
:1012C000DF911F910F91EF90CF90AF908F907F9013
:1012D0006F900895EE0FFF1F0590F491E02D099493
:0412E000F894FFCFB0
:1012E4005550412056302E39380053746172746958
:1012F4006E672075702E2E2E000000000001086C11
:021304000400E3
:00000001FF
