:100000000C9463000C94C2080C94EF080C948B00C1
:100010000C948B000C948B000C948B000C948B0034
:100020000C948B000C948B000C948B000C948B0024
:100030000C948B000C948B000C948B000C948B0014
:100040000C941C090C9417010C948B000C948B00DD
:100050000C948B000C948B000C948B000C948B00F4
:100060000C941E050C948B00000000002400270057
:100070002A0000000000250028002B0000000000DE
:1000800023002600290004040404040404040202DA
:100090000202020203030303030301020408102007
:1000A0004080010204081020010204081020000012
:1000B0000007000201000003040600000000000029
:1000C0000000B3028B0411241FBECFEFD8E0DEBFC7
:1000D000CDBF11E0A0E0B1E0E4E5F5E102C005909C
:1000E0000D92AA33B107D9F716E0AAE3B1E001C037
:1000F0001D92A839B107E1F710E0C6ECD0E004C0CA
:100100002297FE010E94A40AC23CD107C9F70E94AF
:100110004A0A0C94A80A0C940000A091C805B0915A
:10012000C905ED91FD918081ED91FD919081ED9159
:10013000FD916C9163708E2309F064609F2309F038
:100140006860EDEAF0E0E60FF11D659565956D9349
:100150006D917D918D919D91099423C01AC012C01B
:1001600016C010C01EC009C014C013C006C019C0FC
:1001700009C00DC007C00DC014C06250704080405F
:1001800090400BC0615070408040904006C06E5F50
:1001900001C06F5F7F4F8F4F9F4F9E938E937E93D3
:1001A0006E930895A091CA05B091CB05ED91FD9194
:1001B0008081ED91FD919081ED91FD916C91637045
:1001C0008E2309F064609F2309F06860E2EFF0E09D
:1001D000E60FF11D659565956D936D917D918D91FE
:1001E0009D91099423C01AC012C016C010C01EC031
:1001F00009C014C013C006C019C009C00DC007C093
:100200000DC014C062507040804090400BC06150DF
:1002100070408040904006C06E5F01C06F5F7F4FAE
:100220008F4F9F4F9E938E937E936E9308951F9250
:100230000F920FB60F9211242F933F934F936F930A
:100240007F938F939F93AF93BF93EF93FF93DF932E
:10025000CF93CDB7DEB7A297DEBFCDBF4EB58091AD
:10026000B3059091B405892B09F0CEC0242F30E05E
:10027000C9018F7190709093B6058093B50565E0C4
:10028000359527956A95E1F72130310549F02730FA
:10029000310509F487C02115310509F42FC19EC02D
:1002A0008091B5059091B605892B21F48091B70511
:1002B0008EBD24C18091B5059091B605019709F0D6
:1002C00059C08091C705823008F044C0F894ACEB67
:1002D000B5E0ED91FD918081ED91FD919081ED91E1
:1002E000FD916C9163708E2309F064609F2309F087
:1002F0006860E5E8F1E0E60FF11D659565956D93A1
:100300006D917D918D919D91099423C01AC012C069
:1003100016C010C01EC009C014C013C006C019C04A
:1003200009C00DC007C00DC014C0625070408040AD
:1003300090400BC0615070408040904006C06E5F9E
:1003400001C06F5F7F4F8F4F9F4F9E938E937E9321
:100350006E9301C0F89478948091C3058EBDF89493
:100360001092C3051092C4051092C5051092C605DF
:100370007894C4C08091B5059091B605029709F0B4
:10038000BDC02091900530918F0590918F0580918F
:100390009005891714F080E001C080E2231B280F2C
:1003A0002EBDACC04E3F79F440939105109292055A
:1003B0001092B6051092B5051092900580919005A7
:1003C00080938F0521C04F3FF9F490919005809163
:1003D0008F05981709F092C05C9890C02093910502
:1003E0008091B5059091B6058093920581E090E0EB
:1003F0009093B4058093B3058091B5059091B605AF
:10040000181619060CF47AC08091B5059091B605BE
:1004100018161906FCF48091B3059091B4058097E5
:1004200038F4E091B305F091B405EF56FA4F4183EB
:100430008091B3059091B40501969093B405809393
:10044000B3058091B5059091B60501979093B605D7
:100450008093B5058091B5059091B605892B09F07B
:100460004DC08091900520918F05992787FD90952B
:1004700001968F719070332727FD3095821793076F
:10048000C9F1DE011196E1E9F5E082E201900D92F9
:100490008150E1F780919005992787FD9095FC01A7
:1004A00035E0EE0FFF1F3A95E1F7880F991FE80F2F
:1004B000F91FE15BFE4FDE01119682E20D90019281
:1004C0008150E1F7809190058F5F8F718093900547
:1004D0002091900530918F0590918F058091900526
:1004E000891714F080E001C080E2231B280F25311A
:1004F0000CF05C9A1092B4051092B305A296DEBF80
:10050000CDBFCF91DF91FF91EF91BF91AF919F91BF
:100510008F917F916F914F913F912F910F900FBECF
:100520000F901F901895823021F0833079F080E091
:1005300008957093C9056093C80580E06DE870E088
:1005400041E050E00E949F0881E008957093CB0540
:100550006093CA0581E062ED70E041E050E00E94E6
:100560009F0881E00895CF92EF920F931F938AE343
:1005700091E069E04FE025E006E0A7E0EA2EF8E030
:10058000CF2E0E946608109290058091900580936E
:100590008F0582E062E00E94B70983E062E00E947A
:1005A000B70948E850E0FA018491282F30E0220F83
:1005B000331F24583F4FF901859194919093BD05C5
:1005C0008093BC052CE930E0F90184918093C0054B
:1005D0004F5F5F4FFA018491E82FF0E0EE0FFF1FAD
:1005E000E458FF4F859194919093BF058093BE0589
:1005F0002F5F3F4FF90184918093C1051092C3058D
:100600001092C4051092C5051092C60580ED97E0C2
:100610000E947209E091BC05F091BD05208140E087
:1006200030E08091C00590E028233923232B09F086
:1006300041E0E091BE05F091BF05208130E080915E
:10064000C10590E028233923232B09F04260409311
:10065000C20582E06CEB75E00E949302182F809334
:10066000C70583E06CEB75E00E949302180F1093AE
:10067000C7051F910F91EF90CF9008951092B40588
:100680001092B3051092B8051092B9051092BA05F0
:100690001092BB051092B705F8941092C305109202
:1006A000C4051092C5051092C60578948AE391E0BE
:1006B0000E94A807109290058091900580938F0565
:1006C00084E060E00E94F6090895EF92FF920F9394
:1006D0001F93CF93DF93FC018181E82EFF2480815B
:1006E000833051F0843018F48230A9F51AC0843078
:1006F00059F18E3F81F52DC0C7010197809758F5BC
:100700008F01C0E0D0E007C08AE391E0F801618189
:100710000E94650721960F5F1F4FCE15DF05A4F3DA
:100720001AC081E0E816F104B1F4628170E0AB0117
:10073000B5E055954795BA95E1F78AE391E06F7179
:1007400070700E94790707C08AE391E00E94A807B1
:1007500002C00E943E03DF91CF911F910F91FF9045
:10076000EF900895EF92FF920F931F93DF93CF9333
:10077000CDB7DEB7A2970FB6F894DEBF0FBECDBFE0
:100780009091900580918F05981711F180918F05B8
:10079000992787FD9095FC0105E0EE0FFF1F0A9554
:1007A000E1F7880F991FE80FF91FDE011196E15B51
:1007B000FE4F82E201900D928150E1F780918F050A
:1007C0008F5F8F7180938F05CE0101960E94650324
:1007D0000E9464099B01AC018091B8059091B90514
:1007E000A091BA05B091BB0579018A01E81AF90A0E
:1007F0000A0B1B0BD801C701C397A105B1057CF0FB
:1008000086B186958695809581708093B7052093F3
:10081000B8053093B9054093BA055093BB05A2962D
:100820000FB6F894DEBF0FBECDBFCF91DF911F9101
:100830000F91FF90EF9008950F931F9380E162E076
:100840000E94B7090AE311E0C80164E144E020E036
:100850000E94B00784B1837D84B9249A84E061E06A
:100860000E94B70984E060E00E94F6098CB58F7E93
:100870008CBD8CB58C7F8CBD8CB580648CBD8CB5EB
:1008800080688CBD0E943E03C80160E040E00E9489
:100890007907C80160E071E00E949F0AC80160E02A
:1008A00041E00E947907C8016AE071E00E949F0A56
:1008B0001F910F9108952091ED0530E08091EC0596
:1008C000281B3109C90108954091EC058091ED057F
:1008D000481718F02FEF3FEF0AC0E42FF0E0E45381
:1008E000FA4F8081282F30E04F5F4093EC05C9011B
:1008F0000895E091EC058091ED05E81718F0EFEF11
:10090000FFEF06C0F0E0E453FA4F8081E82FF0E0FB
:10091000CF0108950895109214061092130688EEE0
:1009200093E0A0E0B0E08093150690931606A093A4
:100930001706B09318068DE191E09093120680930C
:1009400011060895CF92DF92EF92FF920F931F93BB
:10095000CF93DF937C016B018A018091100688237D
:10096000A1F0C0E0D0E00DC0D701ED91FC91D6011F
:10097000AC0FBD1F0190F081E02DC7016C9109956E
:100980002196C017D10780F304C0CB01642F0E94C9
:100990000305C801DF91CF911F910F91FF90EF9058
:1009A000DF90CF900895DF93CF930F92CDB7DEB74E
:1009B000FC016983809110068823C9F080910F069D
:1009C000803238F081E090E09383828320E030E051
:1009D00015C080910E06E82FF0E0E251FA4F9981A0
:1009E00090838F5F80930E0680930F0605C0CE0123
:1009F000019661E00E94030521E030E0C9010F90FB
:100A0000CF91DF910895482F613210F081E0089571
:100A100080911D06843011F082E00895609368068D
:100A2000A7E4B6E0842F9C01F90102C081918D9367
:100A30008E2F841B8617D0F380E008951F920F92AB
:100A40000FB60F9211242F933F934F935F936F93A1
:100A50007F938F939F93AF93BF93EF93FF93809177
:100A6000B90090E0887F90708036910509F4F2C05B
:100A700081369105CCF58832910509F47BC0893225
:100A80009105B4F48031910509F46FC0813191056D
:100A90003CF4009709F447C1089709F04FC165C0BD
:100AA0008831910509F466C0809709F047C182C07A
:100AB0008034910509F4A4C08134910544F4803355
:100AC000910509F482C0C89709F038C189C0803502
:100AD000910509F489C08835910509F496C08834D8
:100AE000910509F02BC1AEC08839910509F413C1F5
:100AF00089399105ECF48837910509F4ABC0893741
:100B000091054CF48836910509F4A4C0803791050D
:100B100009F014C19FC08838910509F4FCC08039E0
:100B2000910509F49DC08038910509F007C198C06E
:100B3000803B910509F4C6C0813B91054CF4803A95
:100B4000910509F49FC0883A910509F0F7C0BAC031
:100B5000803C910509F4E3C0883C910509F4DFC0AD
:100B6000883B910509F0EAC0C2C080911E068093BF
:100B7000BB00CFC09091450680914606981768F457
:100B800090914506E92FF0E0EB5DF94F808180936D
:100B9000BB009F5F90934506BCC080911F068823D1
:100BA00009F44BC085ED8093BC008091BC0084FDAE
:100BB000FCCFC2C080E280938A0685ED8093BC00A2
:100BC0008091BC0084FDFCCFB7C080E380938A068F
:100BD00085ED8093BC008091BC0084FDFCCFACC04F
:100BE00088E380938A069BC0809145069091BB0064
:100BF000E82FF0E0EB5DF94F90838F5F809345061F
:100C0000909145068091460682C08091450690915C
:100C1000BB00E82FF0E0EB5DF94F90838F5F80938E
:100C2000450680911F06882341F085ED8093BC0026
:100C30008091BC0084FDFCCF7FC081E080932006C2
:100C400084EA6EC085ED8093BC008091BC0084FD79
:100C5000FCCF72C083E080931D061092890659C0B4
:100C600080918906803208F056C080918906909163
:100C7000BB00E82FF0E0E759F94F90838F5F809336
:100C8000890647C080918906803230F4E091890658
:100C9000F0E0E759F94F108285ED8093BC00809118
:100CA000BC0084FDFCCF10921D0660918906E09186
:100CB0002306F091240689E696E070E009951092EB
:100CC00089062DC084E080931D061092670610925D
:100CD0006806E0912106F091220609958091680648
:100CE000882329F481E0809368061092470690914A
:100CF0006706E92FF0E0E95BF94F80818093BB0044
:100D00009F5F909367069091670680916806981799
:100D100010F485EC01C085E88093BC000FC085EC21
:100D20008093BC0009C010928A0685ED8093BC00B8
:100D30008091BC0084FDFCCF10921D06FF91EF91C5
:100D4000BF91AF919F918F917F916F915F914F91E3
:100D50003F912F910F900FBE0F901F9018950F93FA
:100D60001F938C01FC01868160E00E94F60981E0FE
:100D700090E00E947209F801868161E00E94F60904
:100D800081E090E00E947209F801868160E00E9493
:100D9000F60984E690E00E9472091F910F91089570
:100DA000CF92DF92EF92FF920F931F93CF93DF9337
:100DB000D82EC92E282F392FC9018C01C0E0D0E0D0
:100DC000E62EFF24F801878161E00E94B709B70190
:100DD0000C2E02C0759567950A94E2F76170F801D0
:100DE00087810E94F60921960F5F1F4FC830D105F9
:100DF00049F78D2D9C2D0E94AF06DF91CF911F9159
:100E00000F91FF90EF90DF90CF900895CF92DF92F7
:100E1000EF92FF920F931F93CF93DF93D82EC92E9B
:100E2000282F392FC9018C01C0E0D0E0E62EFF2425
:100E3000F801878161E00E94B709B7010C2E02C05A
:100E4000759567950A94E2F76170F80187810E94B1
:100E5000F60921960F5F1F4FC430D10549F78D2D3C
:100E60009C2D0E94AF06DF91CF911F910F91FF90B3
:100E7000EF90DF90CF9008951F93CF93DF93EC0115
:100E8000162F8C81642F0E94F6098D818F3F19F0F7
:100E900060E00E94F6098F8584FF05C0CE01612FB6
:100EA0000E94D0060EC0612F70E084E075956795B2
:100EB0008A95E1F7CE010E940607CE01612F0E94BC
:100EC0000607DF91CF911F91089541E00E943C07F2
:100ED00081E090E0089540E00E943C070895FC0105
:100EE0006089862F8460808B6C60CF010E946B07C5
:100EF0000895DF93CF93CDB7DEB728970FB6F89458
:100F0000DEBF0FBECDBF9C01FE013196A1E3B1E073
:100F100088E00D9001928150E1F7F901838948172B
:100F200010F0482F4150E42FF0E0EE0FFF1FEC0FC0
:100F3000FD1F8181680F6068C9010E946B072896B8
:100F40000FB6F894DEBF0FBECDBFCF91DF910895ED
:100F500061E00E946B0780ED97E00E94720908959E
:100F6000CF93DF93EC01423018F08F8588608F8734
:100F70004B8B1C8A222329F0413019F48F85846021
:100F80008F8780E593EC0E9472098C8160E00E945B
:100F9000F6098E8160E00E94F6098D818F3F19F07D
:100FA00060E00E94F6096F8564FD1DC0CE0163E01C
:100FB0000E94060784E991E10E947209CE0163E074
:100FC0000E94060784E991E10E947209CE0163E064
:100FD0000E94060786E990E00E947209CE0162E055
:100FE0000E94060716C06062CE010E946B0784E96A
:100FF00091E10E9472096F856062CE010E946B07C9
:1010000086E990E00E9472096F856062CE010E94BD
:101010006B076F856062CE010E946B0784E0888B4E
:10102000CE010E946F07CE010E94A80782E0898B43
:10103000CE0166E00E946B07DF91CF9108956F9219
:101040007F928F92AF92CF92EF920F931F93DF9385
:10105000CF93CDB7DEB73C01162F842FF301448325
:1010600025830683E782C086A18682869D85938735
:101070009E8594879F8595879889968761E00E94D1
:10108000B709F30185818F3F19F061E00E94B7092C
:10109000F301868161E00E94B709112319F0F30181
:1010A000178603C080E1F3018787C30160E141E057
:1010B00020E00E94B007CF91DF911F910F91EF9038
:1010C000CF90AF908F907F906F9008958F92AF9256
:1010D000CF92EF920F931F93CF93DF93DC01362FC4
:1010E000542F722F102FAE2C8C2C13961C921E9204
:1010F00012978DE291E011969C938E9300D000D0D0
:10110000EDB7FEB73196CDB7DEB7198211821282E4
:101110001382CD0161E0432F2FEF052FE72EC12E63
:101120000E941F080F900F900F900F90DF91CF91AA
:101130001F910F91EF90CF90AF908F9008958230D4
:1011400000F5E82FF0E0EE0FFF1FE557F94F718330
:101150006083882319F08130A1F408C08091690070
:101160008C7F842B80936900E89A089580916900B0
:10117000440F551F440F551F837F842B80936900B4
:10118000E99A08951F920F920FB60F9211242F9390
:101190003F934F935F936F937F938F939F93AF93FF
:1011A000BF93EF93FF9380918B0690918C06892BD0
:1011B00029F0E0918B06F0918C060995FF91EF9153
:1011C000BF91AF919F918F917F916F915F914F915F
:1011D0003F912F910F900FBE0F901F9018951F9267
:1011E0000F920FB60F9211242F933F934F935F935B
:1011F0006F937F938F939F93AF93BF93EF93FF93DF
:1012000080918D0690918E06892B29F0E0918D06B4
:10121000F0918E060995FF91EF91BF91AF919F914B
:101220008F917F916F915F914F913F912F910F908F
:101230000FBE0F901F9018951F920F920FB60F922E
:1012400011242F933F938F939F93AF93BF938091DC
:10125000930690919406A0919506B09196063091D0
:1012600097060196A11DB11D232F2D5F2D3720F06C
:101270002D570196A11DB11D2093970680939306CB
:1012800090939406A0939506B093960680918F064E
:1012900090919006A0919106B09192060196A11DA1
:1012A000B11D80938F0690939006A0939106B09302
:1012B0009206BF91AF919F918F913F912F910F9087
:1012C0000FBE0F901F9018958FB7F894209193063A
:1012D0003091940640919506509196068FBFB901C2
:1012E000CA010895019739F0880F991F880F991F37
:1012F00002970197F1F70895789484B5826084BDD0
:1013000084B5816084BD85B5826085BD85B5816009
:1013100085BDEEE6F0E0808181608083E1E8F0E069
:101320001082808182608083808181608083E0E898
:10133000F0E0808181608083E1EBF0E08081846077
:101340008083E0EBF0E0808181608083EAE7F0E079
:1013500080818460808380818260808380818160DD
:1013600080838081806880831092C1000895CF932C
:10137000DF93482F50E0CA0186569F4FFC013491FD
:101380004A575F4FFA018491882369F190E0880FF2
:10139000991FFC01E859FF4FA591B491FC01EE584B
:1013A000FF4FC591D491662351F42FB7F8948C91D7
:1013B000932F909589238C93888189230BC0623069
:1013C00061F42FB7F8948C91932F909589238C9387
:1013D0008881832B88832FBF06C09FB7F8948C9198
:1013E000832B8C939FBFDF91CF910895482F50E0BE
:1013F000CA0182559F4FFC012491CA0186569F4F16
:10140000FC0194914A575F4FFA013491332309F458
:1014100040C0222351F1233071F0243028F42130D0
:10142000A1F0223011F514C02630B1F02730C1F000
:101430002430D9F404C0809180008F7703C080915C
:1014400080008F7D8093800010C084B58F7702C0AC
:1014500084B58F7D84BD09C08091B0008F7703C0B3
:101460008091B0008F7D8093B000E32FF0E0EE0F0D
:10147000FF1FEE58FF4FA591B4912FB7F894662344
:1014800021F48C919095892302C08C91892B8C93A7
:101490002FBF0895CF93DF930E947C090E941C0404
:1014A000C0E0D0E00E94B2032097E1F30E94000068
:1014B000F9CFCF92DF92EF92FF920F931F93CF93CA
:1014C000DF937C016B018A01C0E0D0E00FC0D60140
:1014D0006D916D01D701ED91FC910190F081E02DAE
:1014E000C7010995C80FD91F0150104001151105FA
:1014F00071F7CE01DF91CF911F910F91FF90EF9087
:10150000DF90CF900895CF93DF93EC0161157105C3
:1015100019F420E030E00FC0DB010D900020E9F766
:101520001197A61BB70BE881F9810280F381E02DAA
:10153000AD0109959C01C901DF91CF9108950E94E9
:10154000830A0895EE0FFF1F0590F491E02D099492
:04155000F894FFCF3D
:101554005550412056302E393800537461727469E5
:101564006E672075702E2E2E0000000000D304A29A
:10157400045B04640479048A0400000000650759CC
:0A1584000A000040001400540000AB
:00000001FF
