:100000000C9463000C94F0040C941D050C948B006C
:100010000C948B000C948B000C948B000C948B0034
:100020000C948B000C948B000C948B000C948B0024
:100030000C948B000C948B000C948B000C948B0014
:100040000C9459050C9417010C948B000C948B00A4
:100050000C948B000C948B000C948B000C948B00F4
:100060000C944D0C0C948B00000000002400270021
:100070002A0000000000250028002B0000000000DE
:1000800023002600290004040404040404040202DA
:100090000202020203030303030301020408102007
:1000A0004080010204081020010204081020000012
:1000B0000007000201000003040600000000000029
:1000C0000000B302E90A11241FBECFEFD8E0DEBF63
:1000D000CDBF11E0A0E0B1E0EAE8FCE102C005908C
:1000E0000D92AA33B107D9F716E0AAE3B1E001C037
:1000F0001D92A339B107E1F710E0C6ECD0E004C0CF
:100100002297FE010E943F0EC23CD107C9F70E9410
:100110004A050C94430E0C940000A091CF05B091B9
:10012000D005ED91FD918081ED91FD919081ED9152
:10013000FD916C9163708E2309F064609F2309F038
:100140006860EDEAF0E0E60FF11D659565956D9349
:100150006D917D918D919D91099423C01AC012C01B
:1001600016C010C01EC009C014C013C006C019C0FC
:1001700009C00DC007C00DC014C06250704080405F
:1001800090400BC0615070408040904006C06E5F50
:1001900001C06F5F7F4F8F4F9F4F9E938E937E93D3
:1001A0006E930895A091D105B091D205ED91FD9186
:1001B0008081ED91FD919081ED91FD916C91637045
:1001C0008E2309F064609F2309F06860E2EFF0E09D
:1001D000E60FF11D659565956D936D917D918D91FE
:1001E0009D91099423C01AC012C016C010C01EC031
:1001F00009C014C013C006C019C009C00DC007C093
:100200000DC014C062507040804090400BC06150DF
:1002100070408040904006C06E5F01C06F5F7F4FAE
:100220008F4F9F4F9E938E937E936E9308951F9250
:100230000F920FB60F9211242F933F934F936F930A
:100240007F938F939F93AF93BF93EF93FF93DF932E
:10025000CF93CDB7DEB7A297DEBFCDBF4EB58091AD
:10026000AD059091AE05892B09F0CEC0242F30E06A
:10027000C9018F7190709093B0058093AF0565E0D0
:10028000359527956A95E1F72130310549F02730FA
:10029000310509F487C02115310509F42FC19EC02D
:1002A0008091AF059091B005892B21F48091B10523
:1002B0008EBD24C18091AF059091B005019709F0E2
:1002C00059C08091C105823008F044C0F894A6EB73
:1002D000B5E0ED91FD918081ED91FD919081ED91E1
:1002E000FD916C9163708E2309F064609F2309F087
:1002F0006860E5E8F1E0E60FF11D659565956D93A1
:100300006D917D918D919D91099423C01AC012C069
:1003100016C010C01EC009C014C013C006C019C04A
:1003200009C00DC007C00DC014C0625070408040AD
:1003300090400BC0615070408040904006C06E5F9E
:1003400001C06F5F7F4F8F4F9F4F9E938E937E9321
:100350006E9301C0F89478948091BD058EBDF89499
:100360001092BD051092BE051092BF051092C005F7
:100370007894C4C08091AF059091B005029709F0C0
:10038000BDC020918A0530918905909189058091A1
:100390008A05891714F080E001C080E2231B280F32
:1003A0002EBDACC04E3F79F440938B0510928C0566
:1003B0001092B0051092AF0510928A0580918A05BF
:1003C0008093890521C04F3FF9F490918A0580916F
:1003D0008905981709F092C05C9890C020938B050E
:1003E0008091AF059091B00580938C0581E090E0FD
:1003F0009093AE058093AD058091AF059091B005C7
:10040000181619060CF47AC08091AF059091B005CA
:1004100018161906FCF48091AD059091AE058097F1
:1004200038F4E091AD05F091AE05E557FA4F418300
:100430008091AD059091AE0501969093AE058093A5
:10044000AD058091AF059091B00501979093B005EF
:100450008093AF058091AF059091B005892B09F08D
:100460004DC080918A0520918905992787FD909537
:1004700001968F719070332727FD3095821793076F
:10048000C9F1DE011196EBE8F5E082E201900D92F0
:100490008150E1F780918A05992787FD9095FC01AD
:1004A00035E0EE0FFF1F3A95E1F7880F991FE80F2F
:1004B000F91FE75BFE4FDE01119682E20D9001927B
:1004C0008150E1F780918A058F5F8F7180938A0553
:1004D00020918A05309189059091890580918A053E
:1004E000891714F080E001C080E2231B280F25311A
:1004F0000CF05C9A1092AE051092AD05A296DEBF8C
:10050000CDBFCF91DF91FF91EF91BF91AF919F91BF
:100510008F917F916F914F913F912F910F900FBECF
:100520000F901F901895823021F0833079F080E091
:1005300008957093D0056093CF0580E06DE870E07A
:1005400041E050E00E94CD0481E008957093D2050F
:100550006093D10581E062ED70E041E050E00E94DF
:10056000CD0481E008951F938AE391E060E040E0CC
:1005700020E00E94060710928A0580918A058093E8
:10058000890582E062E00E94730683E062E00E94D7
:10059000730648E850E0FA018491282F30E0220FDA
:1005A000331F24583F4FF901859194919093B705DB
:1005B0008093B6052CE930E0F90184918093BA0567
:1005C0004F5F5F4FFA018491E82FF0E0EE0FFF1FBD
:1005D000E458FF4F859194919093B9058093B805A5
:1005E0002F5F3F4FF90184918093BB051092BD05A9
:1005F0001092BE051092BF051092C00580ED97E0E5
:100600000E942E06E091B605F091B705208140E0EA
:1006100030E08091BA0590E028233923232B09F09C
:1006200041E0E091B805F091B905208130E080917A
:10063000BB0590E028233923232B09F04260409327
:10064000BC0582E066EB75E00E949302182F809350
:10065000C10583E066EB75E00E949302180F1093CA
:10066000C1051F9108950F931F931092AE0510922C
:10067000AD051092B2051092B3051092B405109218
:10068000B5051092B105F8941092BD051092BE0503
:100690001092BF051092C00578940AE311E0C801DA
:1006A0000E949309C80160E00E94320910928A05F5
:1006B00080918A058093890584E060E00E94B206FB
:1006C0001F910F910895EF92FF920F931F93CF9375
:1006D000DF93FC018181E82EFF2480818430D1F1F9
:1006E000853030F4823019F1833009F060C009C0E0
:1006F000863009F43EC0863090F18E3F09F057C035
:1007000054C0C7010197809708F051C08F01C0E025
:10071000D0E007C08AE391E0F80161810E94C5083A
:1007200021960F5F1F4FCE15DF05A4F340C081E077
:10073000E816F104E1F5628170E0AB01F5E0559552
:100740004795FA95E1F78AE391E06F7170700E9426
:10075000E1082DC08AE391E00E94930928C081E05E
:10076000E816F10421F58AE391E062810E943209E2
:100770001EC083E0E816F10469F4428150E060E0B5
:1007800070E0338120E0848190E0282B392B8AE3CC
:1007900091E008C08AE391E044E650E060E070E058
:1007A00028EE33E00E941E0702C00E943303DF914F
:1007B000CF911F910F91FF90EF900895EF92FF92CC
:1007C0000F931F93DF93CF93CDB7DEB7A2970FB6EA
:1007D000F894DEBF0FBECDBF90918A058091890548
:1007E000981711F180918905992787FD9095FC0153
:1007F000B5E0EE0FFF1FBA95E1F7880F991FE80FDC
:10080000F91FDE011196E75BFE4F82E201900D9227
:100810008150E1F7809189058F5F8F718093890501
:10082000CE0101960E9463030E94A1057B018C0109
:100830008091B2059091B305A091B405B091B50532
:10084000A8019701281B390B4A0B5B0B2333310599
:100850004105510574F08AE391E00E946D0980938F
:10086000B105E092B205F092B3050093B405109380
:10087000B505A2960FB6F894DEBF0FBECDBFCF91DF
:10088000DF911F910F91FF90EF9008950F931F93A9
:1008900081E0809348010AE311E0C80164E144E08B
:1008A00020E00E94A00984B1837D84B9249A84E069
:1008B00061E00E94730684E060E00E94B2068CB59D
:1008C0008F7E8CBD8CB58C7F8CBD8CB580648CBDCF
:1008D0008CB580688CBD0E943303C80160E040E0A5
:1008E0000E94E108C80160E071E00E94CA04C801EA
:1008F00060E041E00E94E108C8016AE071E00E9406
:10090000CA041F910F910895CF92DF92EF92FF9248
:100910000F931F93CF93DF937C016B018A01C0E09B
:10092000D0E00FC0D6016D916D01D701ED91FC9122
:100930000190F081E02DC7010995C80FD91F015022
:1009400010400115110571F7CE01DF91CF911F9174
:100950000F91FF90EF90DF90CF900895CF93DF93AA
:10096000EC016115710519F420E030E00FC0DB01E6
:100970000D900020E9F71197A61BB70BE881F981CC
:100980000280F381E02DAD0109959C01C901DF9141
:10099000CF9108950E94AE040895823000F5E82FAB
:1009A000F0E0EE0FFF1FEE53FA4F71836083882350
:1009B00019F08130A1F408C0809169008C7F842BEC
:1009C00080936900E89A089580916900440F551F4B
:1009D000440F551F837F842B80936900E99A089503
:1009E0001F920F920FB60F9211242F933F934F93A4
:1009F0005F936F937F938F939F93AF93BF93EF9387
:100A0000FF938091C2059091C305892B29F0E09155
:100A1000C205F091C3050995FF91EF91BF91AF9188
:100A20009F918F917F916F915F914F913F912F9106
:100A30000F900FBE0F901F9018951F920F920FB638
:100A40000F9211242F933F934F935F936F937F9354
:100A50008F939F93AF93BF93EF93FF938091C405C0
:100A60009091C505892B29F0E091C405F091C50549
:100A70000995FF91EF91BF91AF919F918F917F91D8
:100A80006F915F914F913F912F910F900FBE0F90FB
:100A90001F901895CF93DF930E9438060E9446045A
:100AA000C0E0D0E00E94DE032097E1F30E94000046
:100AB000F9CF1F920F920FB60F9211242F933F93ED
:100AC0008F939F93AF93BF938091CA059091CB056D
:100AD000A091CC05B091CD053091CE050196A11D18
:100AE000B11D232F2D5F2D3720F02D570196A11D0D
:100AF000B11D2093CE058093CA059093CB05A0939A
:100B0000CC05B093CD058091C6059091C705A09105
:100B1000C805B091C9050196A11DB11D8093C605F8
:100B20009093C705A093C805B093C905BF91AF9135
:100B30009F918F913F912F910F900FBE0F901F901B
:100B400018958FB7F8942091CA053091CB05409144
:100B5000CC055091CD058FBFB901CA0108959FB74B
:100B6000F8942091C6053091C7054091C805509171
:100B7000C90586B5A89B06C08F3F21F02F5F3F4F68
:100B80004F4F5F4F9FBF542F432F322F2227280FE5
:100B9000311D411D511D82E0220F331F441F551F7F
:100BA0008A95D1F7B901CA0108959B01AC017FB7BD
:100BB000F8948091C6059091C705A091C805B091A1
:100BC000C90566B5A89B05C06F3F19F00196A11D28
:100BD000B11D7FBFBA2FA92F982F8827860F911D8F
:100BE000A11DB11D62E0880F991FAA1FBB1F6A9546
:100BF000D1F7BC012DC0FFB7F8948091C605909144
:100C0000C705A091C805B091C905E6B5A89B05C068
:100C1000EF3F19F00196A11DB11DFFBFBA2FA92FFB
:100C2000982F88278E0F911DA11DB11DE2E0880F1E
:100C3000991FAA1FBB1FEA95D1F7861B970B885EE9
:100C40009340C8F2215030404040504068517C4FA2
:100C5000211531054105510571F60895019739F0C7
:100C6000880F991F880F991F02970197F1F7089530
:100C7000789484B5826084BD84B5816084BD85B577
:100C8000826085BD85B5816085BDEEE6F0E080813E
:100C900081608083E1E8F0E010828081826080835F
:100CA000808181608083E0E8F0E0808181608083E2
:100CB000E1EBF0E0808184608083E0EBF0E0808114
:100CC00081608083EAE7F0E08081846080838081B6
:100CD000826080838081816080838081806880835E
:100CE0001092C1000895CF93DF93482F50E0CA01BE
:100CF00086569F4FFC0134914A575F4FFA01849109
:100D0000882369F190E0880F991FFC01E859FF4F93
:100D1000A591B491FC01EE58FF4FC591D491662383
:100D200051F42FB7F8948C91932F909589238C933D
:100D3000888189230BC0623061F42FB7F8948C91BD
:100D4000932F909589238C938881832B88832FBF41
:100D500006C09FB7F8948C91832B8C939FBFDF9133
:100D6000CF910895482F50E0CA0182559F4FFC0152
:100D70002491CA0186569F4FFC0194914A575F4FB8
:100D8000FA013491332309F440C0222351F1233076
:100D900071F0243028F42130A1F0223011F514C074
:100DA0002630B1F02730C1F02430D9F404C080914E
:100DB00080008F7703C0809180008F7D80938000BA
:100DC00010C084B58F7702C084B58F7D84BD09C003
:100DD0008091B0008F7703C08091B0008F7D8093A9
:100DE000B000E32FF0E0EE0FFF1FEE58FF4FA5918C
:100DF000B4912FB7F894662321F48C9190958923B0
:100E000002C08C91892B8C932FBF0895FC01138213
:100E100012828DE191E091838083442311F481E07B
:100E200001C082E083872287618714821686089535
:100E3000682F89E196E00E94310B08952F923F922E
:100E40004F925F926F927F928F929F92AF92BF92DA
:100E5000CF92DF92EF92FF920F931F93DF93CF9386
:100E6000CDB7DEB728970FB6F894DEBF0FBECDBF63
:100E70009E838D835A016B018901DC011B968C9145
:100E80001B97882309F4B5C019966C91606289E1BB
:100E900096E070E00E94AF0A82E10E94180789E1A3
:100EA00096E00E94740BED81FE816185606289E1AC
:100EB00096E070E041E050E00E94850B89E196E009
:100EC0000E94C20A282F30E038872F83980140E023
:100ED00050E060E472E48FE090E00E941B0E790124
:100EE0008A01C601B50128EE33E040E050E00E94DF
:100EF000FC0DA80197010E941B0EC901DA013C01FB
:100F00004D01D801C701B695A79597958795898317
:100F10009A83AB83BC8367C00E94AF051B012C0181
:100F2000AD81BE8119966C91606289E196E070E0B6
:100F30000E94AF0A82E10E941807EF81F885E06203
:100F4000F887EF838F810E94180789E196E00E945D
:100F5000740B8823D1F7A980BA80CB80DC80A20CE7
:100F6000B31CC41CD51C0E94AF05A6019501261B0D
:100F7000370B480B590B12161306140615069CF373
:100F8000AD81BE8119966C91606289E196E070E056
:100F90000E94AF0A82E10E941807EF81F885EF7D79
:100FA000F887EF838F810E94180789E196E00E94FD
:100FB000740B8823D1F762015101AE0CBF1CC01E17
:100FC000D11E0E94AF05A6019501261B370B480BC9
:100FD000590B12161306140615069CF308946108A3
:100FE000710881089108611471048104910409F069
:100FF00093CF28960FB6F894DEBF0FBECDBFCF912A
:10100000DF911F910F91FF90EF90DF90CF90BF90F5
:10101000AF909F908F907F906F905F904F903F9098
:101020002F9008951F93162FFC016185606289E15E
:1010300096E070E00E94AF0A89E00E941807812FB5
:101040000E94180789E196E00E94740B8823D1F76B
:101050001F9108951F93162FFC016185606289E13D
:1010600096E070E00E94AF0A83E10E941807812F8A
:101070000E94180789E196E00E94740B8823D1F73B
:101080001F910895DF92EF92FF920F931F93CF93DA
:10109000DF937C01062FD42EFC018685C62FD0E07D
:1010A0008130A1F5658504FD6061C5FD6860C6FD00
:1010B000646007FD6260DD2019F0162F106A02C01F
:1010C000162F1062C701612F0E942A081F7DC701D9
:1010D000612F0E942A08F7016585C0FD6061C1FD8E
:1010E0006860C2FD6460C3FD6260DD2019F0162FE8
:1010F000106A02C0162F1062C701612F0E942A08D1
:101100001F7DC701612F0E942A0837C0D695C79559
:101110009E012877442319F0922F966002C0922FE7
:101120009460F701858183FD02C010E001C010E8E2
:10113000192BC701612F0E9412081B7FC701612F65
:101140000E941208602F6F70660F660F660FDD2019
:1011500011F0666001C06460F701858183FD02C003
:1011600010E001C010E8162BC701612F0E94120881
:101170001B7FC701612F0E941208DF91CF911F9141
:101180000F91FF90EF90DF900895FC0183858823F5
:1011900021F0CF0141E00E94420881E090E00895F3
:1011A00040E00E9442080895FC018385882341F0B5
:1011B0006581862F846085836C60CF010E94D00892
:1011C0000895DF93CF93CDB7DEB728970FB6F89485
:1011D000DEBF0FBECDBF9C01FC0183858823D9F003
:1011E000FE013196A1E2B1E088E00D9001928150BC
:1011F000E1F7F9018781841710F4482F4150E42F5B
:10120000F0E0EE0FFF1FEC0FFD1F8181680F60689B
:10121000C9010E94D00828960FB6F894DEBF0FBE11
:10122000CDBFCF91DF9108950F931F93162F072FF6
:10123000FC016185606289E196E070E00E94AF0A7E
:1012400082E10E941807812F0E941807802F0E94B8
:10125000180789E196E00E94740B8823D1F71F914B
:101260000F910895FC0183858823B1F1828588233D
:1012700011F087E0682786858130F1F480EC91E0F9
:101280009587848760FF04C080E891E09587848714
:1012900061FF05C0848595858F779587848762FF78
:1012A00005C0848595859E7F95878487648575852F
:1012B000CF010E94140908958581662311F088608A
:1012C00001C0877F8583858183FD02C060E001C006
:1012D00060E8CF010E9412080895CF93DF93EC01DC
:1012E0008B858823E9F06985606289E196E070E08A
:1012F0000E94AF0A82E10E94180789E196E00E94ED
:10130000740B6985606289E196E070E041E050E02D
:101310000E94850B89E196E00E94C20A80958F7138
:10132000DF91CF910895FC018385882341F0CF019F
:1013300061E00E94D00880ED97E00E942E0608959B
:101340000F931F93CF93DF93EC01142F022F62E3CF
:1013500070E080E090E00E94D50589E196E00E946F
:10136000890B8E8569858130B1F5606289E196E0EF
:1013700070E00E94AF0A80E00E9418078FE10E948F
:10138000180789E196E00E94740B882321F08B8571
:10139000823009F466C06985606289E196E070E098
:1013A0000E94AF0A8CE00E9418078FE10E94180784
:1013B00089E196E00E94740B882321F08B858230AE
:1013C00009F44FC06985606289E196E070E00E948F
:1013D000AF0A81E038C0606289E196E070E00E9467
:1013E000AF0A80E00E9418078FEF0E94180780E084
:1013F0000E94180780E00E94180780E00E941807EA
:1014000080E00E94180780E00E94180780E00E9498
:10141000180780E00E94180780E00E94180780E00B
:101420000E94180789E196E00E94740B882319F046
:101430008B858230B1F06985606289E196E070E069
:101440000E94AF0A80E00E94180780E00E941807FF
:1014500089E196E00E94740B882329F08B85823005
:1014600011F41B8677C08B85823011F481E08B8765
:10147000123018F08C8188608C831F8318860023BB
:1014800029F0113019F48C8184608C838E85813031
:10149000B9F41D861C8610E0CE0168E30E942A087C
:1014A000CE0168E10E942A081F5F1330A9F7CE0120
:1014B00068E20E942A08CE0168E00E942A0820C043
:1014C000CE016CE90E941208CE0168E90E94120860
:1014D000CE016CE90E941208CE0168E90E94120850
:1014E000CE016CE90E941208CE0168E90E94120840
:1014F000CE0164E90E941208CE0160E90E94120840
:1015000065E070E080E090E00E94D5056C8160624B
:10151000CE010E94D00865E070E080E090E00E947B
:10152000D5056C816062CE010E94D00865E070E054
:1015300080E090E00E94D5058CE08D83CE010E9472
:10154000D408CE010E94930982E08E83CE0166E02A
:101550000E94D008DF91CF911F910F91089581E0F3
:10156000809318066093F5051092160610921706E0
:1015700008952091F40530E08091F305281B31098E
:10158000C90108954091F3058091F405481718F0BA
:101590002FEF3FEF0AC0E42FF0E0ED52FA4F8081C9
:1015A000282F30E04F5F4093F305C9010895E09183
:1015B000F3058091F405E81718F0EFEFFFEF06C090
:1015C000F0E0ED52FA4F8081E82FF0E0CF0108956E
:1015D000089510921C0610921B0688EE93E0A0E07E
:1015E000B0E080931D0690931E06A0931F06B09353
:1015F00020068DE291E090931A06809319060895D3
:10160000CF92DF92EF92FF920F931F93CF93DF93CE
:101610007C016B018A01809118068823A1F0C0E04B
:10162000D0E00DC0D701ED91FC91D601AC0FBD1FEC
:101630000190F081E02DC7016C9109952196C017AA
:10164000D10780F304C0CB01642F0E94320CC80183
:10165000DF91CF911F910F91FF90EF90DF90CF908E
:101660000895DF93CF930F92CDB7DEB7FC01698366
:10167000809118068823C9F080911706803238F0CF
:1016800081E090E09383828320E030E015C0809178
:101690001606E82FF0E0EA50FA4F998190838F5FA9
:1016A000809316068093170605C0CE01019661E06F
:1016B0000E94320C21E030E0C9010F90CF91DF9100
:1016C00008950F93062F8091F50566EF75E0409120
:1016D000170621E00E94DD0B1092160610921706E5
:1016E000109218060F91089561E00E94610B089511
:1016F000413208F040E2862F63ED75E00E94940BC2
:101700001092F3058093F405089521E00E94780B70
:1017100008951092F3051092F40510921606109297
:1017200017060E94DE0D0895382F413210F040E078
:1017300042C0809125068823E1F791E09093250629
:10174000209327068FEF8093920610924D0641500A
:1017500040934E064F5F9093260680912606330FE6
:10176000832B8093260680912806813041F41092C5
:101770002806809126068093BB0085EC01C085EE8B
:101780008093BC00809125068130E1F380914D0665
:10179000841710F440914D0620E030E00AC0FB01B0
:1017A000E20FF31FD901A35DB94F8C9180832F5FA6
:1017B0003F4F2417A0F3842F08950F931F93582FA2
:1017C000122F413210F081E04AC080912506882313
:1017D000E1F782E080932506009327068FEF809340
:1017E000920610924D0640934E06ADE2B6E0FB0124
:1017F00002C081918D938E2F861B8417D0F3109297
:10180000260680912606550F852B8093260680910B
:101810002806813041F41092280680912606809394
:10182000BB0085EC01C085EE8093BC00112321F044
:10183000809125068230E1F3809192068F3F11F46A
:1018400080E00DC080919206803211F482E007C0E2
:1018500080919206803311F084E001C083E01F91F3
:101860000F910895482F613210F081E00895809122
:101870002506843011F082E0089560937006AFE48D
:10188000B6E0842F9C01F90102C081918D938E2FC7
:10189000841B8617D0F380E008951F920F920FB635
:1018A0000F9211242F933F934F935F936F937F93E6
:1018B0008F939F93AF93BF93EF93FF938091B90062
:1018C00090E0887F90708036910509F4F2C08136EF
:1018D0009105CCF58832910509F47BC089329105D8
:1018E000B4F48031910509F46FC0813191053CF465
:1018F000009709F447C1089709F04FC165C08831C6
:10190000910509F466C0809709F047C182C0803410
:10191000910509F4A4C08134910544F48033910504
:1019200009F482C0C89709F038C189C08035910593
:1019300009F489C08835910509F496C08834910569
:1019400009F02BC1AEC08839910509F413C189395A
:101950009105ECF48837910509F4ABC089379105FE
:101960004CF48836910509F4A4C08037910509F03C
:1019700014C19FC08838910509F4FCC080399105D5
:1019800009F49DC08038910509F007C198C0803BDB
:10199000910509F4C6C0813B91054CF4803A91054C
:1019A00009F49FC0883A910509F0F7C0BAC0803C9D
:1019B000910509F4E3C0883C910509F4DFC0883B38
:1019C000910509F0EAC0C2C0809126068093BB0051
:1019D000CFC090914D0680914E06981768F4909173
:1019E0004D06E92FF0E0E35DF94F80818093BB0065
:1019F0009F5F90934D06BCC080912706882309F411
:101A00004BC085ED8093BC008091BC0084FDFCCF71
:101A1000C2C080E28093920685ED8093BC008091E5
:101A2000BC0084FDFCCFB7C080E38093920685EDB7
:101A30008093BC008091BC0084FDFCCFACC088E3E7
:101A4000809392069BC080914D069091BB00E82F39
:101A5000F0E0E35DF94F90838F5F80934D069091A6
:101A60004D0680914E0682C080914D069091BB003C
:101A7000E82FF0E0E35DF94F90838F5F80934D0690
:101A800080912706882341F085ED8093BC008091EA
:101A9000BC0084FDFCCF7FC081E08093280684EAEF
:101AA0006EC085ED8093BC008091BC0084FDFCCFAE
:101AB00072C083E0809325061092910659C08091F0
:101AC0009106803208F056C0809191069091BB003B
:101AD000E82FF0E0EF58F94F90838F5F80939106E5
:101AE00047C080919106803230F4E0919106F0E099
:101AF000EF58F94F108285ED8093BC008091BC00B7
:101B000084FDFCCF1092250660919106E0912B0692
:101B1000F0912C0681E796E070E00995109291060D
:101B20002DC084E08093250610926F0610927006F7
:101B3000E0912906F0912A06099580917006882384
:101B400029F481E08093700610924F0690916F0601
:101B5000E92FF0E0E15BF94F80818093BB009F5F4C
:101B600090936F0690916F0680917006981710F40D
:101B700085EC01C085E88093BC000FC085EC8093A4
:101B8000BC0009C01092920685ED8093BC00809144
:101B9000BC0084FDFCCF10922506FF91EF91BF9110
:101BA000AF919F918F917F916F915F914F913F91F5
:101BB0002F910F900FBE0F901F9018951092250631
:101BC00081E0809327061092280682E161E00E945E
:101BD000B20683E161E00E94B206E9EBF0E08081A9
:101BE0008E7F808380818D7F808388E48093B8009E
:101BF00085E48093BC000895629FD001739FF0013B
:101C0000829FE00DF11D649FE00DF11D929FF00D8C
:101C1000839FF00D749FF00D659FF00D9927729FC3
:101C2000B00DE11DF91F639FB00DE11DF91FBD014E
:101C3000CF0111240895A1E21A2EAA1BBB1BFD019E
:101C40000DC0AA1FBB1FEE1FFF1FA217B307E4079B
:101C5000F50720F0A21BB30BE40BF50B661F771FF3
:101C6000881F991F1A9469F76095709580959095D3
:101C70009B01AC01BD01CF010895EE0FFF1F059040
:0A1C8000F491E02D0994F894FFCFD1
:101C8A005550412056302E393800537461727469A8
:101C9A006E672075702E2E2E0000000000C5088485
:101CAA0004000040001400540000000000310B0042
:0A1CBA000BB90AC20AD70AE80A00B3
:00000001FF
